{
  "contractName": "DoubleAuction",
  "abi": [
    {
      "inputs": [],
      "stateMutability": "nonpayable",
      "type": "constructor"
    },
    {
      "inputs": [],
      "name": "clearingInfo",
      "outputs": [
        {
          "internalType": "int256",
          "name": "clearingQuantity",
          "type": "int256"
        },
        {
          "internalType": "int256",
          "name": "clearingPrice",
          "type": "int256"
        },
        {
          "internalType": "int256",
          "name": "clearingType",
          "type": "int256"
        }
      ],
      "stateMutability": "view",
      "type": "function",
      "constant": true
    },
    {
      "inputs": [],
      "name": "market",
      "outputs": [
        {
          "internalType": "address",
          "name": "",
          "type": "address"
        }
      ],
      "stateMutability": "view",
      "type": "function",
      "constant": true
    },
    {
      "inputs": [
        {
          "internalType": "address",
          "name": "_buyer",
          "type": "address"
        },
        {
          "internalType": "int256",
          "name": "_quantity",
          "type": "int256"
        },
        {
          "internalType": "int256",
          "name": "_price",
          "type": "int256"
        }
      ],
      "name": "BuyerBid",
      "outputs": [],
      "stateMutability": "payable",
      "type": "function",
      "payable": true
    },
    {
      "inputs": [
        {
          "internalType": "address",
          "name": "_seller",
          "type": "address"
        },
        {
          "internalType": "int256",
          "name": "_quantity",
          "type": "int256"
        },
        {
          "internalType": "int256",
          "name": "_price",
          "type": "int256"
        }
      ],
      "name": "SellerBid",
      "outputs": [],
      "stateMutability": "payable",
      "type": "function",
      "payable": true
    },
    {
      "inputs": [],
      "name": "marketClearing",
      "outputs": [],
      "stateMutability": "nonpayable",
      "type": "function"
    },
    {
      "inputs": [],
      "name": "ClearAll",
      "outputs": [],
      "stateMutability": "nonpayable",
      "type": "function"
    },
    {
      "inputs": [],
      "name": "MakePayment",
      "outputs": [],
      "stateMutability": "payable",
      "type": "function",
      "payable": true
    }
  ],
  "bytecode": "0x608060405234801561001057600080fd5b50336000806101000a81548173ffffffffffffffffffffffffffffffffffffffff021916908373ffffffffffffffffffffffffffffffffffffffff160217905550600060076001018190555060006007600001819055506000600760020181905550612014806100816000396000f3fe6080604052600436106100705760003560e01c80636448a4ce1161004e5780636448a4ce146100b257806380f55605146100ce578063890b6560146100f9578063f19776041461012657610070565b80630f5f4fcc14610075578063256a9ea114610091578063595089ae146100a8575b600080fd5b61008f600480360381019061008a91906118d0565b61013d565b005b34801561009d57600080fd5b506100a66102c4565b005b6100b0610327565b005b6100cc60048036038101906100c791906118d0565b6108ae565b005b3480156100da57600080fd5b506100e3610a35565b6040516100f09190611a2c565b60405180910390f35b34801561010557600080fd5b5061010e610a59565b60405161011d93929190611a47565b60405180910390f35b34801561013257600080fd5b5061013b610a71565b005b60006003600083815260200190815260200160002054141561019f5760018190806001815401808255809150506001900390600052602060002001600090919091909150558160036000838152602001908152602001600020819055506101d6565b8160036000838152602001908152602001600020546101be9190611afa565b60036000838152602001908152602001600020819055505b80600560008573ffffffffffffffffffffffffffffffffffffffff1673ffffffffffffffffffffffffffffffffffffffff1681526020019081526020016000206001018190555081600560008573ffffffffffffffffffffffffffffffffffffffff1673ffffffffffffffffffffffffffffffffffffffff168152602001908152602001600020600001819055506001600560008573ffffffffffffffffffffffffffffffffffffffff1673ffffffffffffffffffffffffffffffffffffffff16815260200190815260200160002060020160006101000a81548160ff021916908315150217905550505050565b60006001805490501180156102de57506000600280549050115b61031d576040517f08c379a000000000000000000000000000000000000000000000000000000000815260040161031490611abe565b60405180910390fd5b610325610bbe565b565b60008060011515600560003373ffffffffffffffffffffffffffffffffffffffff1673ffffffffffffffffffffffffffffffffffffffff16815260200190815260200160002060020160009054906101000a900460ff16151514806103df575060011515600660003373ffffffffffffffffffffffffffffffffffffffff1673ffffffffffffffffffffffffffffffffffffffff16815260200190815260200160002060020160009054906101000a900460ff161515145b61041e576040517f08c379a000000000000000000000000000000000000000000000000000000000815260040161041590611a7e565b60405180910390fd5b33915060011515600560008473ffffffffffffffffffffffffffffffffffffffff1673ffffffffffffffffffffffffffffffffffffffff16815260200190815260200160002060020160009054906101000a900460ff161515141561067157600760010154600560008473ffffffffffffffffffffffffffffffffffffffff1673ffffffffffffffffffffffffffffffffffffffff16815260200190815260200160002060010154121561056357600560008373ffffffffffffffffffffffffffffffffffffffff1673ffffffffffffffffffffffffffffffffffffffff16815260200190815260200160002060000154600560008473ffffffffffffffffffffffffffffffffffffffff1673ffffffffffffffffffffffffffffffffffffffff1681526020019081526020016000206001015461055c9190611bf8565b9050610670565b600760010154600560008473ffffffffffffffffffffffffffffffffffffffff1673ffffffffffffffffffffffffffffffffffffffff16815260200190815260200160002060010154131561065957600560008373ffffffffffffffffffffffffffffffffffffffff1673ffffffffffffffffffffffffffffffffffffffff16815260200190815260200160002060000154600760010154600560008573ffffffffffffffffffffffffffffffffffffffff1673ffffffffffffffffffffffffffffffffffffffff168152602001908152602001600020600101546106489190611d69565b6106529190611bf8565b905061066f565b600a5460076001015461066c9190611bf8565b90505b5b5b60011515600660008473ffffffffffffffffffffffffffffffffffffffff1673ffffffffffffffffffffffffffffffffffffffff16815260200190815260200160002060020160009054906101000a900460ff16151514156107e657600760010154600660008473ffffffffffffffffffffffffffffffffffffffff1673ffffffffffffffffffffffffffffffffffffffff16815260200190815260200160002060010154121561077657600660008373ffffffffffffffffffffffffffffffffffffffff1673ffffffffffffffffffffffffffffffffffffffff1681526020019081526020016000206000015460076001015461076f9190611bf8565b90506107e5565b600760010154600660008473ffffffffffffffffffffffffffffffffffffffff1673ffffffffffffffffffffffffffffffffffffffff1681526020019081526020016000206001015414156107df57600b546007600101546107d89190611bf8565b90506107e4565b600090505b5b5b60008273ffffffffffffffffffffffffffffffffffffffff16619c40670de0b6b3a7640000846108169190611d0f565b60405161082290611a17565b600060405180830381858888f193505050503d8060008114610860576040519150601f19603f3d011682016040523d82523d6000602084013e610865565b606091505b50509050806108a9576040517f08c379a00000000000000000000000000000000000000000000000000000000081526004016108a090611a9e565b60405180910390fd5b505050565b600060046000838152602001908152602001600020541415610910576002819080600181540180825580915050600190039060005260206000200160009091909190915055816004600083815260200190815260200160002081905550610947565b81600460008381526020019081526020016000205461092f9190611afa565b60046000838152602001908152602001600020819055505b80600660008573ffffffffffffffffffffffffffffffffffffffff1673ffffffffffffffffffffffffffffffffffffffff1681526020019081526020016000206001018190555081600660008573ffffffffffffffffffffffffffffffffffffffff1673ffffffffffffffffffffffffffffffffffffffff168152602001908152602001600020600001819055506001600660008573ffffffffffffffffffffffffffffffffffffffff1673ffffffffffffffffffffffffffffffffffffffff16815260200190815260200160002060020160006101000a81548160ff021916908315150217905550505050565b60008054906101000a900473ffffffffffffffffffffffffffffffffffffffff1681565b60078060000154908060010154908060020154905083565b60005b600180549050811015610af757600060018281548110610abd577f4e487b7100000000000000000000000000000000000000000000000000000000600052603260045260246000fd5b9060005260206000200154905060006003600083815260200190815260200160002081905550508080610aef90611f09565b915050610a74565b5060005b600280549050811015610b7e57600060028281548110610b44577f4e487b7100000000000000000000000000000000000000000000000000000000600052603260045260246000fd5b9060005260206000200154905060006004600083815260200190815260200160002081905550508080610b7690611f09565b915050610afb565b5060016000610b8d9190611868565b60026000610b9b9190611868565b600060076001018190555060006007600001819055506006600760020181905550565b6000806000806000806000610be66001600060018080549050610be19190611dfd565b6112b6565b610c04600260006001600280549050610bff9190611dfd565b61157e565b600060405180606001604052806003600060018781548110610c4f577f4e487b7100000000000000000000000000000000000000000000000000000000600052603260045260246000fd5b9060005260206000200154815260200190815260200160002054815260200160018581548110610ca8577f4e487b7100000000000000000000000000000000000000000000000000000000600052603260045260246000fd5b90600052602060002001548152602001600115158152509050600060405180606001604052806004600060028781548110610d0c577f4e487b7100000000000000000000000000000000000000000000000000000000600052603260045260246000fd5b9060005260206000200154815260200190815260200160002054815260200160028581548110610d65577f4e487b7100000000000000000000000000000000000000000000000000000000600052603260045260246000fd5b9060005260206000200154815260200160011515815250905060046007600201819055506000816020015190506000836020015190505b60018054905086108015610db4575060028054905085105b8015610dc857508260200151846020015112155b156112705783600001518a610ddd9190611afa565b9750826000015189610def9190611afa565b965086881315610f035786985086600760000181905550826020015191508260200151905084610e1e90611f09565b9450600280549050851015610edd5760028581548110610e67577f4e487b7100000000000000000000000000000000000000000000000000000000600052603260045260246000fd5b90600052602060002001548360200181815250506004600060028781548110610eb9577f4e487b7100000000000000000000000000000000000000000000000000000000600052603260045260246000fd5b90600052602060002001548152602001908152602001600020548360000181815250505b60009a5060026007600201819055508688610ef89190611d69565b600a819055506111e0565b86881215611026578799508760076000018190555082602001519150826020015190508580610f3190611f09565b965050600180549050861015610ff15760018681548110610f7b577f4e487b7100000000000000000000000000000000000000000000000000000000600052603260045260246000fd5b90600052602060002001548460200181815250506003600060018881548110610fcd577f4e487b7100000000000000000000000000000000000000000000000000000000600052603260045260246000fd5b90600052602060002001548152602001908152602001600020548460000181815250505b60009a506001600760020181905550878761100c9190611d69565b836000015161101b9190611d69565b600b819055506111df565b879850879950876007600001819055508360200151905082602001519150858061104f90611f09565b965050848061105d90611f09565b95505060018054905086101561111d57600186815481106110a7577f4e487b7100000000000000000000000000000000000000000000000000000000600052603260045260246000fd5b906000526020600020015484602001818152505060036000600188815481106110f9577f4e487b7100000000000000000000000000000000000000000000000000000000600052603260045260246000fd5b90600052602060002001548152602001908152602001600020548460000181815250505b6002805490508510156111da5760028581548110611164577f4e487b7100000000000000000000000000000000000000000000000000000000600052603260045260246000fd5b906000526020600020015483602001818152505060046000600287815481106111b6577f4e487b7100000000000000000000000000000000000000000000000000000000600052603260045260246000fd5b90600052602060002001548152602001908152602001600020548360000181815250505b60019a505b5b818114156111f357806007600101819055505b8a1561126b57806007600101819055506001805490508614801561121b575060028054905085105b1561123057600160076002018190555061126a565b60018054905086108015611248575060028054905085145b1561125d576002600760020181905550611269565b60036007600201819055505b5b5b610d9c565b60006007600001541480156112855750818114155b156112a957600460076002018190555061129f8183611846565b6007600101819055505b5050505050505050505050565b600082905060008290506000600285856112d09190611d69565b6112da9190611b8e565b856112e59190611afa565b90506000868281548110611322577f4e487b7100000000000000000000000000000000000000000000000000000000600052603260045260246000fd5b906000526020600020015490505b82841361153c575b80878581548110611372577f4e487b7100000000000000000000000000000000000000000000000000000000600052603260045260246000fd5b9060005260206000200154131561139657838061138e90611ec0565b945050611338565b5b808784815481106113d1577f4e487b7100000000000000000000000000000000000000000000000000000000600052603260045260246000fd5b906000526020600020015412156113f55782806113ed90611e77565b935050611397565b82841361153757868381548110611435577f4e487b7100000000000000000000000000000000000000000000000000000000600052603260045260246000fd5b9060005260206000200154878581548110611479577f4e487b7100000000000000000000000000000000000000000000000000000000600052603260045260246000fd5b90600052602060002001548886815481106114bd577f4e487b7100000000000000000000000000000000000000000000000000000000600052603260045260246000fd5b9060005260206000200160008a8781548110611502577f4e487b7100000000000000000000000000000000000000000000000000000000600052603260045260246000fd5b906000526020600020016000849190505583919050555050838061152590611ec0565b945050828061153390611e77565b9350505b611330565b828612156115585761154f8787856112b6565b50505050611579565b848412156115745761156b8785876112b6565b50505050611579565b505050505b505050565b600082905060008290506000600285856115989190611d69565b6115a29190611b8e565b856115ad9190611afa565b905060008682815481106115ea577f4e487b7100000000000000000000000000000000000000000000000000000000600052603260045260246000fd5b906000526020600020015490505b828413611804575b8087858154811061163a577f4e487b7100000000000000000000000000000000000000000000000000000000600052603260045260246000fd5b9060005260206000200154121561165e57838061165690611ec0565b945050611600565b5b80878481548110611699577f4e487b7100000000000000000000000000000000000000000000000000000000600052603260045260246000fd5b906000526020600020015413156116bd5782806116b590611e77565b93505061165f565b8284136117ff578683815481106116fd577f4e487b7100000000000000000000000000000000000000000000000000000000600052603260045260246000fd5b9060005260206000200154878581548110611741577f4e487b7100000000000000000000000000000000000000000000000000000000600052603260045260246000fd5b9060005260206000200154888681548110611785577f4e487b7100000000000000000000000000000000000000000000000000000000600052603260045260246000fd5b9060005260206000200160008a87815481106117ca577f4e487b7100000000000000000000000000000000000000000000000000000000600052603260045260246000fd5b90600052602060002001600084919050558391905055505083806117ed90611ec0565b94505082806117fb90611e77565b9350505b6115f8565b828612156118205761181787878561157e565b50505050611841565b8484121561183c5761183387858761157e565b50505050611841565b505050505b505050565b6000600282846118569190611afa565b6118609190611b8e565b905092915050565b50805460008255906000526020600020908101906118869190611889565b50565b5b808211156118a257600081600090555060010161188a565b5090565b6000813590506118b581611fb0565b92915050565b6000813590506118ca81611fc7565b92915050565b6000806000606084860312156118e557600080fd5b60006118f3868287016118a6565b9350506020611904868287016118bb565b9250506040611915868287016118bb565b9150509250925092565b61192881611e31565b82525050565b61193781611e43565b82525050565b600061194a601e83611ae9565b91507f4e65697468657220612062757965722c206e6f7220612073656c6c65722e00006000830152602082019050919050565b600061198a600e83611ae9565b91507f5061796d656e74206661696c65640000000000000000000000000000000000006000830152602082019050919050565b60006119ca600083611ade565b9150600082019050919050565b60006119e4600f83611ae9565b91507f4c61636b206f66206269646465722100000000000000000000000000000000006000830152602082019050919050565b6000611a22826119bd565b9150819050919050565b6000602082019050611a41600083018461191f565b92915050565b6000606082019050611a5c600083018661192e565b611a69602083018561192e565b611a76604083018461192e565b949350505050565b60006020820190508181036000830152611a978161193d565b9050919050565b60006020820190508181036000830152611ab78161197d565b9050919050565b60006020820190508181036000830152611ad7816119d7565b9050919050565b600081905092915050565b600082825260208201905092915050565b6000611b0582611e43565b9150611b1083611e43565b9250817f7fffffffffffffffffffffffffffffffffffffffffffffffffffffffffffffff03831360008312151615611b4b57611b4a611f52565b5b817f8000000000000000000000000000000000000000000000000000000000000000038312600083121615611b8357611b82611f52565b5b828201905092915050565b6000611b9982611e43565b9150611ba483611e43565b925082611bb457611bb3611f81565b5b600160000383147f800000000000000000000000000000000000000000000000000000000000000083141615611bed57611bec611f52565b5b828205905092915050565b6000611c0382611e43565b9150611c0e83611e43565b9250827f7fffffffffffffffffffffffffffffffffffffffffffffffffffffffffffffff0482116000841360008413161615611c4d57611c4c611f52565b5b817f80000000000000000000000000000000000000000000000000000000000000000583126000841260008413161615611c8a57611c89611f52565b5b827f80000000000000000000000000000000000000000000000000000000000000000582126000841360008412161615611cc757611cc6611f52565b5b827f7fffffffffffffffffffffffffffffffffffffffffffffffffffffffffffffff0582126000841260008412161615611d0457611d03611f52565b5b828202905092915050565b6000611d1a82611e6d565b9150611d2583611e6d565b9250817fffffffffffffffffffffffffffffffffffffffffffffffffffffffffffffffff0483118215151615611d5e57611d5d611f52565b5b828202905092915050565b6000611d7482611e43565b9150611d7f83611e43565b9250827f800000000000000000000000000000000000000000000000000000000000000001821260008412151615611dba57611db9611f52565b5b827f7fffffffffffffffffffffffffffffffffffffffffffffffffffffffffffffff018213600084121615611df257611df1611f52565b5b828203905092915050565b6000611e0882611e6d565b9150611e1383611e6d565b925082821015611e2657611e25611f52565b5b828203905092915050565b6000611e3c82611e4d565b9050919050565b6000819050919050565b600073ffffffffffffffffffffffffffffffffffffffff82169050919050565b6000819050919050565b6000611e8282611e43565b91507f8000000000000000000000000000000000000000000000000000000000000000821415611eb557611eb4611f52565b5b600182039050919050565b6000611ecb82611e43565b91507f7fffffffffffffffffffffffffffffffffffffffffffffffffffffffffffffff821415611efe57611efd611f52565b5b600182019050919050565b6000611f1482611e6d565b91507fffffffffffffffffffffffffffffffffffffffffffffffffffffffffffffffff821415611f4757611f46611f52565b5b600182019050919050565b7f4e487b7100000000000000000000000000000000000000000000000000000000600052601160045260246000fd5b7f4e487b7100000000000000000000000000000000000000000000000000000000600052601260045260246000fd5b611fb981611e31565b8114611fc457600080fd5b50565b611fd081611e43565b8114611fdb57600080fd5b5056fea264697066735822122048218861991b1eb62234df5cffe3c0c8ca826cc750919957d9a79e935e8aeabb64736f6c63430008000033",
  "immutableReferences": {},
  "source": "// SPDX-License-Identifier: MIT\n\npragma solidity ^0.8.0;\n// Importing MathForDoubleAuction library: calculate average/quick sort descending/quick sort ascending\nimport \"./MathForDoubleAuction.sol\";\n\ncontract DoubleAuction is MathForDoubleAuction {\n\n  struct Bid {\n    int quantity;\n    int price;\n    bool exist; // this is added for checking whether one address has placed a bid.\n  }\n  struct Clearing {\n    int clearingQuantity;\n    int clearingPrice;\n    int clearingType; // marginal_seller = 1, marginal_buyer = 2,  exact = 3, null = 4\n  }\n\n  address public market; // who deployed this contract \n  int[] _consumptionPrices; \n  int[] _generationPrices;\n  mapping(int => int) consumptionBids;\n  mapping(int => int) generationBids;\n  mapping(address => Bid)  consumptionaddress;\n  mapping(address => Bid)  generationaddress;\n  Clearing public clearingInfo;\n  int clearingpricebuyleft;\n  int clearingpricesell;\n  \n  constructor  () { //invokes only once when deploy contract to initialize contract state\n    market = msg.sender;\n    clearingInfo.clearingPrice = 0;\n    clearingInfo.clearingQuantity = 0;\n    clearingInfo.clearingType = 0;\n  }\n\n  // buyers set bid\n  function BuyerBid(address _buyer,int _quantity, int _price) payable public {\n    if(consumptionBids[_price]==0){\n      _consumptionPrices.push(_price);\n      consumptionBids[_price] = _quantity;\n    } else {\n      consumptionBids[_price] = consumptionBids[_price] + _quantity;\n    }\n    consumptionaddress[_buyer].price=_price;\n    consumptionaddress[_buyer].quantity=_quantity;\n    consumptionaddress[_buyer].exist=true;\n  }\n\n   //sellers set bid\n  function SellerBid(address _seller,int _quantity, int _price) payable public{\n    if(generationBids[_price]==0){\n      _generationPrices.push(_price);\n      generationBids[_price] = _quantity;\n    }else{\n        generationBids[_price] = generationBids[_price] + _quantity;\n    }\n    generationaddress[_seller].price=_price;\n    generationaddress[_seller].quantity=_quantity;\n    generationaddress[_seller].exist=true;\n  }\n  \n\n  function marketClearing() public {\n    // at least one buyer and  oen seller,otherwise throw error\n    require(_consumptionPrices.length > 0 && _generationPrices.length > 0,\"Lack of bidder!\"); \n    computeClearing();\n  }\n \n  function computeClearing() private {\n    bool check = false;\n    int demand_quantity = 0;\n    int supply_quantity = 0;\n    int buy_quantity = 0;\n    int sell_quantity = 0;\n    uint i = 0;  \n    uint j = 0;\n    \n    //sort arrays, consumer's bid descending, producer's ascending\n    quickSortDescending(_consumptionPrices, 0, int(_consumptionPrices.length - 1));\n    quickSortAscending(_generationPrices, 0, int(_generationPrices.length - 1));\n\n    Bid memory buy = Bid({\n        quantity: consumptionBids[_consumptionPrices[i]],\n        price: _consumptionPrices[i],\n        exist:true});\n            \n    Bid memory sell = Bid({\n        quantity: generationBids[_generationPrices[j]],\n        price: _generationPrices[j],\n        exist:true});\n    clearingInfo.clearingType = 4;  //cleartype:null 4 no deal\n    int b = sell.price; \n    int a = buy.price;\n    while(i<_consumptionPrices.length && j<_generationPrices.length && buy.price>=sell.price){\n        buy_quantity = demand_quantity + buy.quantity;\n        sell_quantity = supply_quantity + sell.quantity;\n        if (buy_quantity > sell_quantity){\n            supply_quantity = sell_quantity;\n            clearingInfo.clearingQuantity = sell_quantity;\n            b = sell.price;\n            a = sell.price;\n            ++j;\n            if(j < _generationPrices.length){\n                sell.price =  _generationPrices[j];\n                sell.quantity = generationBids[_generationPrices[j]];\n            }\n            check = false;\n            clearingInfo.clearingType = 2; //clearingtype:marginal-buyer 2\n            clearingpricebuyleft=buy_quantity-sell_quantity;\n        }\n        else if (buy_quantity < sell_quantity){\n            demand_quantity = buy_quantity;\n            clearingInfo.clearingQuantity = buy_quantity;\n            b = sell.price;\n            a = sell.price;\n            i++;\n                \n            if(i < _consumptionPrices.length){\n                buy.price =  _consumptionPrices[i];\n                buy.quantity = consumptionBids[_consumptionPrices[i]];\n            }\n            check = false;\n            clearingInfo.clearingType = 1; //clearingtype:marginal-seller 1\n            clearingpricesell=sell.quantity-(sell_quantity-buy_quantity);\n        }\n        else{\n            supply_quantity = buy_quantity;\n            demand_quantity = buy_quantity;\n            clearingInfo.clearingQuantity = buy_quantity;\n            a = buy.price;\n            b = sell.price;\n            i++;\n            j++;\n\n            if(i < _consumptionPrices.length){\n                buy.price =  _consumptionPrices[i];\n                buy.quantity = consumptionBids[_consumptionPrices[i]];\n            }\n            if(j < _generationPrices.length){\n                sell.price =  _generationPrices[j];\n                sell.quantity = generationBids[_generationPrices[j]];\n            }\n            check = true; //check for whether one side exhausted\n        }\n        \n    if(a == b){\n        clearingInfo.clearingPrice = a;\n    }\n    if(check){ /* one side exhausted check */\n        clearingInfo.clearingPrice = a;\n        if(i == _consumptionPrices.length && j <  _generationPrices.length){\n            clearingInfo.clearingType = 1;// exhausted buyers, sellers unsatisfied at same price\n        } \n        else if (i < _consumptionPrices.length && j == _generationPrices.length){ \n            clearingInfo.clearingType = 2;// exhausted sellers, buyers unsatisfied at same price\n        } \n        else { \n            clearingInfo.clearingType = 3;// both sides exhausted at same quantity\n        }\n        }\n    }\n    \n    if (clearingInfo.clearingQuantity==0 && a!=b){\n        clearingInfo.clearingType = 4; \n        clearingInfo.clearingPrice = MathForDoubleAuction.getAvg(a,b);\n    }\n  }\n\n  function ClearAll() public {\n    for (uint cleanConsumptionIndex = 0; cleanConsumptionIndex < _consumptionPrices.length; cleanConsumptionIndex++){\n      int consPrice = _consumptionPrices[cleanConsumptionIndex];\n      consumptionBids[consPrice] = 0;\n    }//clear mapping\n    for (uint cleanGenerationIndex = 0; cleanGenerationIndex < _generationPrices.length; cleanGenerationIndex++){\n      int genPrice = _generationPrices[cleanGenerationIndex];\n      generationBids[genPrice] = 0;\n    }\n    delete _consumptionPrices; //delete arrays\n    delete _generationPrices;\n    clearingInfo.clearingPrice=0;//update clearing information\n    clearingInfo.clearingQuantity=0;\n    clearingInfo.clearingType=6;\n  }\n\n  function MakePayment()public payable {\n    address payable recipiant;\n    uint value;\n    require(consumptionaddress[msg.sender].exist==true||generationaddress[msg.sender].exist==true,\"Neither a buyer, nor a seller.\");\n    recipiant = payable(msg.sender);\n    if (consumptionaddress[recipiant].exist==true){\n     if(consumptionaddress[recipiant].price < clearingInfo.clearingPrice){\n       value = uint(consumptionaddress[recipiant].price * consumptionaddress[recipiant].quantity);\n     }\n     else if(consumptionaddress[recipiant].price > clearingInfo.clearingPrice){\n       value = uint((consumptionaddress[recipiant].price-clearingInfo.clearingPrice) * consumptionaddress[recipiant].quantity);\n     }\n     else{\n       value = uint(clearingInfo.clearingPrice * clearingpricebuyleft);\n     }\n    }\n    if (generationaddress[recipiant].exist==true){// I use 2 if here instead of if-else, so that a buyer can also be a seller\n      if(generationaddress[recipiant].price < clearingInfo.clearingPrice){\n       value = uint(clearingInfo.clearingPrice * generationaddress[recipiant].quantity);\n     }\n     else if(generationaddress[recipiant].price == clearingInfo.clearingPrice){\n       value = uint(clearingInfo.clearingPrice * clearingpricesell);\n     }\n     else{\n       value = uint(0);\n     }\n    }\n    (bool success, ) =recipiant.call{gas:40000,value:value*1000000000000000000}(\"\"); // take 1 ETH as 1 unit, 10^18 wei= 1 ETH\n    require(success, \"Payment failed\");\n  }\n}",
  "sourcePath": "/Users/harmonialeo/Documents/source/GP/assessment/pet-shop-tutorial/contracts/DoubleAuction.sol",
  "compiler": {
    "name": "solc",
    "version": "0.8.0+commit.c7dfd78e.Emscripten.clang"
  },
  "schemaVersion": "3.4.6",
  "updatedAt": "2022-04-04T21:51:04.584Z",
  "networkType": "ethereum",
  "devdoc": {
    "kind": "dev",
    "methods": {},
    "version": 1
  },
  "userdoc": {
    "kind": "user",
    "methods": {},
    "version": 1
  }
}